{
  "_format": "hh-sol-artifact-1",
  "contractName": "RandomIpfsNft",
  "sourceName": "contracts/RandomIpfsNft.sol",
  "abi": [
    {
      "inputs": [
        {
          "internalType": "address",
          "name": "vrfCoordinatorV2",
          "type": "address"
        },
        {
          "internalType": "uint64",
          "name": "subscriptionId",
          "type": "uint64"
        },
        {
          "internalType": "bytes32",
          "name": "gasLane",
          "type": "bytes32"
        },
        {
          "internalType": "uint32",
          "name": "callbackGaslimit",
          "type": "uint32"
        },
        {
          "internalType": "string[3]",
          "name": "dogTokenUris",
          "type": "string[3]"
        },
        {
          "internalType": "uint256",
          "name": "mintFee",
          "type": "uint256"
        }
      ],
      "stateMutability": "nonpayable",
      "type": "constructor"
    },
    {
      "inputs": [
        {
          "internalType": "address",
          "name": "have",
          "type": "address"
        },
        {
          "internalType": "address",
          "name": "want",
          "type": "address"
        }
      ],
      "name": "OnlyCoordinatorCanFulfill",
      "type": "error"
    },
    {
      "inputs": [],
      "name": "RandomIpfsNft__NeedMoreETHSent",
      "type": "error"
    },
    {
      "inputs": [],
      "name": "RandomIpfsNft__RangeOutOfBounds",
      "type": "error"
    },
    {
      "inputs": [],
      "name": "RandomIpfsNft__TransferFailed",
      "type": "error"
    },
    {
      "anonymous": false,
      "inputs": [
        {
          "indexed": true,
          "internalType": "address",
          "name": "owner",
          "type": "address"
        },
        {
          "indexed": true,
          "internalType": "address",
          "name": "approved",
          "type": "address"
        },
        {
          "indexed": true,
          "internalType": "uint256",
          "name": "tokenId",
          "type": "uint256"
        }
      ],
      "name": "Approval",
      "type": "event"
    },
    {
      "anonymous": false,
      "inputs": [
        {
          "indexed": true,
          "internalType": "address",
          "name": "owner",
          "type": "address"
        },
        {
          "indexed": true,
          "internalType": "address",
          "name": "operator",
          "type": "address"
        },
        {
          "indexed": false,
          "internalType": "bool",
          "name": "approved",
          "type": "bool"
        }
      ],
      "name": "ApprovalForAll",
      "type": "event"
    },
    {
      "anonymous": false,
      "inputs": [
        {
          "indexed": false,
          "internalType": "enum RandomIpfsNft.Breed",
          "name": "dogBreed",
          "type": "uint8"
        },
        {
          "indexed": false,
          "internalType": "address",
          "name": "minter",
          "type": "address"
        }
      ],
      "name": "NftMinted",
      "type": "event"
    },
    {
      "anonymous": false,
      "inputs": [
        {
          "indexed": true,
          "internalType": "uint256",
          "name": "requestId",
          "type": "uint256"
        },
        {
          "indexed": false,
          "internalType": "address",
          "name": "requester",
          "type": "address"
        }
      ],
      "name": "NftRequested",
      "type": "event"
    },
    {
      "anonymous": false,
      "inputs": [
        {
          "indexed": true,
          "internalType": "address",
          "name": "previousOwner",
          "type": "address"
        },
        {
          "indexed": true,
          "internalType": "address",
          "name": "newOwner",
          "type": "address"
        }
      ],
      "name": "OwnershipTransferred",
      "type": "event"
    },
    {
      "anonymous": false,
      "inputs": [
        {
          "indexed": true,
          "internalType": "address",
          "name": "from",
          "type": "address"
        },
        {
          "indexed": true,
          "internalType": "address",
          "name": "to",
          "type": "address"
        },
        {
          "indexed": true,
          "internalType": "uint256",
          "name": "tokenId",
          "type": "uint256"
        }
      ],
      "name": "Transfer",
      "type": "event"
    },
    {
      "inputs": [
        {
          "internalType": "address",
          "name": "to",
          "type": "address"
        },
        {
          "internalType": "uint256",
          "name": "tokenId",
          "type": "uint256"
        }
      ],
      "name": "approve",
      "outputs": [],
      "stateMutability": "nonpayable",
      "type": "function"
    },
    {
      "inputs": [
        {
          "internalType": "address",
          "name": "owner",
          "type": "address"
        }
      ],
      "name": "balanceOf",
      "outputs": [
        {
          "internalType": "uint256",
          "name": "",
          "type": "uint256"
        }
      ],
      "stateMutability": "view",
      "type": "function"
    },
    {
      "inputs": [
        {
          "internalType": "uint256",
          "name": "tokenId",
          "type": "uint256"
        }
      ],
      "name": "getApproved",
      "outputs": [
        {
          "internalType": "address",
          "name": "",
          "type": "address"
        }
      ],
      "stateMutability": "view",
      "type": "function"
    },
    {
      "inputs": [
        {
          "internalType": "uint256",
          "name": "moddedRng",
          "type": "uint256"
        }
      ],
      "name": "getBreedFromModdedRng",
      "outputs": [
        {
          "internalType": "enum RandomIpfsNft.Breed",
          "name": "",
          "type": "uint8"
        }
      ],
      "stateMutability": "pure",
      "type": "function"
    },
    {
      "inputs": [],
      "name": "getChanceArray",
      "outputs": [
        {
          "internalType": "uint256[3]",
          "name": "",
          "type": "uint256[3]"
        }
      ],
      "stateMutability": "pure",
      "type": "function"
    },
    {
      "inputs": [
        {
          "internalType": "uint256",
          "name": "index",
          "type": "uint256"
        }
      ],
      "name": "getDogTokenUri",
      "outputs": [
        {
          "internalType": "string",
          "name": "",
          "type": "string"
        }
      ],
      "stateMutability": "view",
      "type": "function"
    },
    {
      "inputs": [],
      "name": "getMintFee",
      "outputs": [
        {
          "internalType": "uint256",
          "name": "",
          "type": "uint256"
        }
      ],
      "stateMutability": "view",
      "type": "function"
    },
    {
      "inputs": [],
      "name": "getTokenCounter",
      "outputs": [
        {
          "internalType": "uint256",
          "name": "",
          "type": "uint256"
        }
      ],
      "stateMutability": "view",
      "type": "function"
    },
    {
      "inputs": [
        {
          "internalType": "address",
          "name": "owner",
          "type": "address"
        },
        {
          "internalType": "address",
          "name": "operator",
          "type": "address"
        }
      ],
      "name": "isApprovedForAll",
      "outputs": [
        {
          "internalType": "bool",
          "name": "",
          "type": "bool"
        }
      ],
      "stateMutability": "view",
      "type": "function"
    },
    {
      "inputs": [],
      "name": "name",
      "outputs": [
        {
          "internalType": "string",
          "name": "",
          "type": "string"
        }
      ],
      "stateMutability": "view",
      "type": "function"
    },
    {
      "inputs": [],
      "name": "owner",
      "outputs": [
        {
          "internalType": "address",
          "name": "",
          "type": "address"
        }
      ],
      "stateMutability": "view",
      "type": "function"
    },
    {
      "inputs": [
        {
          "internalType": "uint256",
          "name": "tokenId",
          "type": "uint256"
        }
      ],
      "name": "ownerOf",
      "outputs": [
        {
          "internalType": "address",
          "name": "",
          "type": "address"
        }
      ],
      "stateMutability": "view",
      "type": "function"
    },
    {
      "inputs": [
        {
          "internalType": "uint256",
          "name": "requestId",
          "type": "uint256"
        },
        {
          "internalType": "uint256[]",
          "name": "randomWords",
          "type": "uint256[]"
        }
      ],
      "name": "rawFulfillRandomWords",
      "outputs": [],
      "stateMutability": "nonpayable",
      "type": "function"
    },
    {
      "inputs": [],
      "name": "renounceOwnership",
      "outputs": [],
      "stateMutability": "nonpayable",
      "type": "function"
    },
    {
      "inputs": [],
      "name": "requestNft",
      "outputs": [
        {
          "internalType": "uint256",
          "name": "requestId",
          "type": "uint256"
        }
      ],
      "stateMutability": "payable",
      "type": "function"
    },
    {
      "inputs": [
        {
          "internalType": "uint256",
          "name": "",
          "type": "uint256"
        }
      ],
      "name": "s_requestIdToSender",
      "outputs": [
        {
          "internalType": "address",
          "name": "",
          "type": "address"
        }
      ],
      "stateMutability": "view",
      "type": "function"
    },
    {
      "inputs": [],
      "name": "s_tokenCounter",
      "outputs": [
        {
          "internalType": "uint256",
          "name": "",
          "type": "uint256"
        }
      ],
      "stateMutability": "view",
      "type": "function"
    },
    {
      "inputs": [
        {
          "internalType": "address",
          "name": "from",
          "type": "address"
        },
        {
          "internalType": "address",
          "name": "to",
          "type": "address"
        },
        {
          "internalType": "uint256",
          "name": "tokenId",
          "type": "uint256"
        }
      ],
      "name": "safeTransferFrom",
      "outputs": [],
      "stateMutability": "nonpayable",
      "type": "function"
    },
    {
      "inputs": [
        {
          "internalType": "address",
          "name": "from",
          "type": "address"
        },
        {
          "internalType": "address",
          "name": "to",
          "type": "address"
        },
        {
          "internalType": "uint256",
          "name": "tokenId",
          "type": "uint256"
        },
        {
          "internalType": "bytes",
          "name": "_data",
          "type": "bytes"
        }
      ],
      "name": "safeTransferFrom",
      "outputs": [],
      "stateMutability": "nonpayable",
      "type": "function"
    },
    {
      "inputs": [
        {
          "internalType": "address",
          "name": "operator",
          "type": "address"
        },
        {
          "internalType": "bool",
          "name": "approved",
          "type": "bool"
        }
      ],
      "name": "setApprovalForAll",
      "outputs": [],
      "stateMutability": "nonpayable",
      "type": "function"
    },
    {
      "inputs": [
        {
          "internalType": "bytes4",
          "name": "interfaceId",
          "type": "bytes4"
        }
      ],
      "name": "supportsInterface",
      "outputs": [
        {
          "internalType": "bool",
          "name": "",
          "type": "bool"
        }
      ],
      "stateMutability": "view",
      "type": "function"
    },
    {
      "inputs": [],
      "name": "symbol",
      "outputs": [
        {
          "internalType": "string",
          "name": "",
          "type": "string"
        }
      ],
      "stateMutability": "view",
      "type": "function"
    },
    {
      "inputs": [
        {
          "internalType": "uint256",
          "name": "tokenId",
          "type": "uint256"
        }
      ],
      "name": "tokenURI",
      "outputs": [
        {
          "internalType": "string",
          "name": "",
          "type": "string"
        }
      ],
      "stateMutability": "view",
      "type": "function"
    },
    {
      "inputs": [
        {
          "internalType": "address",
          "name": "from",
          "type": "address"
        },
        {
          "internalType": "address",
          "name": "to",
          "type": "address"
        },
        {
          "internalType": "uint256",
          "name": "tokenId",
          "type": "uint256"
        }
      ],
      "name": "transferFrom",
      "outputs": [],
      "stateMutability": "nonpayable",
      "type": "function"
    },
    {
      "inputs": [
        {
          "internalType": "address",
          "name": "newOwner",
          "type": "address"
        }
      ],
      "name": "transferOwnership",
      "outputs": [],
      "stateMutability": "nonpayable",
      "type": "function"
    },
    {
      "inputs": [],
      "name": "widthdraw",
      "outputs": [],
      "stateMutability": "nonpayable",
      "type": "function"
    }
  ],
  "bytecode": "0x6101406040523480156200001257600080fd5b50604051620047233803806200472383398181016040528101906200003891906200080b565b6040518060400160405280600f81526020017f52616e646f6d2049504653204e465400000000000000000000000000000000008152506040518060400160405280600381526020017f52494e0000000000000000000000000000000000000000000000000000000000815250878073ffffffffffffffffffffffffffffffffffffffff1660808173ffffffffffffffffffffffffffffffffffffffff1660601b81525050508160009080519060200190620000f59291906200029e565b5080600190805190602001906200010e9291906200029e565b5050506200013162000125620001d060201b60201c565b620001d860201b60201c565b8573ffffffffffffffffffffffffffffffffffffffff1660a08173ffffffffffffffffffffffffffffffffffffffff1660601b815250508467ffffffffffffffff1660c08167ffffffffffffffff1660c01b815250508360e081815250508263ffffffff166101008163ffffffff1660e01b8152505081600a906003620001ba9291906200032f565b508061012081815250505050505050506200092b565b600033905090565b6000600760009054906101000a900473ffffffffffffffffffffffffffffffffffffffff16905081600760006101000a81548173ffffffffffffffffffffffffffffffffffffffff021916908373ffffffffffffffffffffffffffffffffffffffff1602179055508173ffffffffffffffffffffffffffffffffffffffff168173ffffffffffffffffffffffffffffffffffffffff167f8be0079c531659141344cd1fd0a4f28419497f9722a3daafe3b4186f6b6457e060405160405180910390a35050565b828054620002ac90620008f5565b90600052602060002090601f016020900481019282620002d057600085556200031c565b82601f10620002eb57805160ff19168380011785556200031c565b828001600101855582156200031c579182015b828111156200031b578251825591602001919060010190620002fe565b5b5090506200032b919062000396565b5090565b82805482825590600052602060002090810192821562000383579160200282015b8281111562000382578251829080519060200190620003719291906200029e565b509160200191906001019062000350565b5b509050620003929190620003b5565b5090565b5b80821115620003b157600081600090555060010162000397565b5090565b5b80821115620003d95760008181620003cf9190620003dd565b50600101620003b6565b5090565b508054620003eb90620008f5565b6000825580601f10620003ff575062000420565b601f0160209004906000526020600020908101906200041f919062000396565b5b50565b6000604051905090565b600080fd5b600080fd5b600073ffffffffffffffffffffffffffffffffffffffff82169050919050565b6000620004648262000437565b9050919050565b620004768162000457565b81146200048257600080fd5b50565b60008151905062000496816200046b565b92915050565b600067ffffffffffffffff82169050919050565b620004bb816200049c565b8114620004c757600080fd5b50565b600081519050620004db81620004b0565b92915050565b6000819050919050565b620004f681620004e1565b81146200050257600080fd5b50565b6000815190506200051681620004eb565b92915050565b600063ffffffff82169050919050565b62000537816200051c565b81146200054357600080fd5b50565b60008151905062000557816200052c565b92915050565b600080fd5b6000601f19601f8301169050919050565b7f4e487b7100000000000000000000000000000000000000000000000000000000600052604160045260246000fd5b620005ad8262000562565b810181811067ffffffffffffffff82111715620005cf57620005ce62000573565b5b80604052505050565b6000620005e462000423565b9050620005f28282620005a2565b919050565b600067ffffffffffffffff82111562000615576200061462000573565b5b602082029050919050565b600080fd5b600080fd5b600067ffffffffffffffff82111562000648576200064762000573565b5b620006538262000562565b9050602081019050919050565b60005b838110156200068057808201518184015260208101905062000663565b8381111562000690576000848401525b50505050565b6000620006ad620006a7846200062a565b620005d8565b905082815260208101848484011115620006cc57620006cb62000625565b5b620006d984828562000660565b509392505050565b600082601f830112620006f957620006f86200055d565b5b81516200070b84826020860162000696565b91505092915050565b60006200072b6200072584620005f7565b620005d8565b9050806020840283018581111562000748576200074762000620565b5b835b818110156200079657805167ffffffffffffffff8111156200077157620007706200055d565b5b808601620007808982620006e1565b855260208501945050506020810190506200074a565b5050509392505050565b600082601f830112620007b857620007b76200055d565b5b6003620007c784828562000714565b91505092915050565b6000819050919050565b620007e581620007d0565b8114620007f157600080fd5b50565b6000815190506200080581620007da565b92915050565b60008060008060008060c087890312156200082b576200082a6200042d565b5b60006200083b89828a0162000485565b96505060206200084e89828a01620004ca565b95505060406200086189828a0162000505565b94505060606200087489828a0162000546565b935050608087015167ffffffffffffffff81111562000898576200089762000432565b5b620008a689828a01620007a0565b92505060a0620008b989828a01620007f4565b9150509295509295509295565b7f4e487b7100000000000000000000000000000000000000000000000000000000600052602260045260246000fd5b600060028204905060018216806200090e57607f821691505b60208210811415620009255762000924620008c6565b5b50919050565b60805160601c60a05160601c60c05160c01c60e0516101005160e01c61012051613d8e6200099560003960008181610e9d01526110ac0152600061118601526000611142015260006111630152600061110601526000818161095c01526109b00152613d8e6000f3fe6080604052600436106101815760003560e01c8063715018a6116100d1578063a36f573b1161008a578063b88d4fde11610064578063b88d4fde14610577578063c87b56dd146105a0578063e985e9c5146105dd578063f2fde38b1461061a57610181565b8063a36f573b146104df578063a51cccf31461051c578063aa1524911461055957610181565b8063715018a6146103e1578063741a63fa146103f85780637a5caab3146104355780638da5cb5b1461046057806395d89b411461048b578063a22cb465146104b657610181565b806323b872dd1161013e5780635dacf5f4116101185780635dacf5f4146103115780636352211e1461033c5780636e02007d1461037957806370a08231146103a457610181565b806323b872dd146102a857806342842e0e146102d157806352b50a2a146102fa57610181565b806301ffc9a71461018657806306fdde03146101c3578063081812fc146101ee578063095ea7b31461022b5780630b21a83b146102545780631fe543e31461027f575b600080fd5b34801561019257600080fd5b506101ad60048036038101906101a891906126ce565b610643565b6040516101ba9190612716565b60405180910390f35b3480156101cf57600080fd5b506101d8610725565b6040516101e591906127ca565b60405180910390f35b3480156101fa57600080fd5b5061021560048036038101906102109190612822565b6107b7565b6040516102229190612890565b60405180910390f35b34801561023757600080fd5b50610252600480360381019061024d91906128d7565b61083c565b005b34801561026057600080fd5b50610269610954565b6040516102769190612926565b60405180910390f35b34801561028b57600080fd5b506102a660048036038101906102a19190612a89565b61095a565b005b3480156102b457600080fd5b506102cf60048036038101906102ca9190612ae5565b610a1a565b005b3480156102dd57600080fd5b506102f860048036038101906102f39190612ae5565b610a7a565b005b34801561030657600080fd5b5061030f610a9a565b005b34801561031d57600080fd5b50610326610bc2565b6040516103339190612be3565b60405180910390f35b34801561034857600080fd5b50610363600480360381019061035e9190612822565b610bed565b6040516103709190612890565b60405180910390f35b34801561038557600080fd5b5061038e610c9f565b60405161039b9190612926565b60405180910390f35b3480156103b057600080fd5b506103cb60048036038101906103c69190612bfe565b610ca9565b6040516103d89190612926565b60405180910390f35b3480156103ed57600080fd5b506103f6610d61565b005b34801561040457600080fd5b5061041f600480360381019061041a9190612822565b610de9565b60405161042c91906127ca565b60405180910390f35b34801561044157600080fd5b5061044a610e99565b6040516104579190612926565b60405180910390f35b34801561046c57600080fd5b50610475610ec1565b6040516104829190612890565b60405180910390f35b34801561049757600080fd5b506104a0610eeb565b6040516104ad91906127ca565b60405180910390f35b3480156104c257600080fd5b506104dd60048036038101906104d89190612c57565b610f7d565b005b3480156104eb57600080fd5b5061050660048036038101906105019190612822565b610f93565b6040516105139190612890565b60405180910390f35b34801561052857600080fd5b50610543600480360381019061053e9190612822565b610fc6565b6040516105509190612d0e565b60405180910390f35b6105616110a8565b60405161056e9190612926565b60405180910390f35b34801561058357600080fd5b5061059e60048036038101906105999190612dde565b6112a8565b005b3480156105ac57600080fd5b506105c760048036038101906105c29190612822565b61130a565b6040516105d491906127ca565b60405180910390f35b3480156105e957600080fd5b5061060460048036038101906105ff9190612e61565b61145c565b6040516106119190612716565b60405180910390f35b34801561062657600080fd5b50610641600480360381019061063c9190612bfe565b6114f0565b005b60007f80ac58cd000000000000000000000000000000000000000000000000000000007bffffffffffffffffffffffffffffffffffffffffffffffffffffffff1916827bffffffffffffffffffffffffffffffffffffffffffffffffffffffff1916148061070e57507f5b5e139f000000000000000000000000000000000000000000000000000000007bffffffffffffffffffffffffffffffffffffffffffffffffffffffff1916827bffffffffffffffffffffffffffffffffffffffffffffffffffffffff1916145b8061071e575061071d826115e8565b5b9050919050565b60606000805461073490612ed0565b80601f016020809104026020016040519081016040528092919081815260200182805461076090612ed0565b80156107ad5780601f10610782576101008083540402835291602001916107ad565b820191906000526020600020905b81548152906001019060200180831161079057829003601f168201915b5050505050905090565b60006107c282611652565b610801576040517f08c379a00000000000000000000000000000000000000000000000000000000081526004016107f890612f74565b60405180910390fd5b6004600083815260200190815260200160002060009054906101000a900473ffffffffffffffffffffffffffffffffffffffff169050919050565b600061084782610bed565b90508073ffffffffffffffffffffffffffffffffffffffff168373ffffffffffffffffffffffffffffffffffffffff1614156108b8576040517f08c379a00000000000000000000000000000000000000000000000000000000081526004016108af90613006565b60405180910390fd5b8073ffffffffffffffffffffffffffffffffffffffff166108d76116be565b73ffffffffffffffffffffffffffffffffffffffff1614806109065750610905816109006116be565b61145c565b5b610945576040517f08c379a000000000000000000000000000000000000000000000000000000000815260040161093c90613098565b60405180910390fd5b61094f83836116c6565b505050565b60095481565b7f000000000000000000000000000000000000000000000000000000000000000073ffffffffffffffffffffffffffffffffffffffff163373ffffffffffffffffffffffffffffffffffffffff1614610a0c57337f00000000000000000000000000000000000000000000000000000000000000006040517f1cf993f4000000000000000000000000000000000000000000000000000000008152600401610a039291906130b8565b60405180910390fd5b610a16828261177f565b5050565b610a2b610a256116be565b8261191f565b610a6a576040517f08c379a0000000000000000000000000000000000000000000000000000000008152600401610a6190613153565b60405180910390fd5b610a758383836119fd565b505050565b610a95838383604051806020016040528060008152506112a8565b505050565b610aa26116be565b73ffffffffffffffffffffffffffffffffffffffff16610ac0610ec1565b73ffffffffffffffffffffffffffffffffffffffff1614610b16576040517f08c379a0000000000000000000000000000000000000000000000000000000008152600401610b0d906131bf565b60405180910390fd5b600047905060003373ffffffffffffffffffffffffffffffffffffffff1682604051610b4190613210565b60006040518083038185875af1925050503d8060008114610b7e576040519150601f19603f3d011682016040523d82523d6000602084013e610b83565b606091505b5050905080610bbe576040517fca7e25b700000000000000000000000000000000000000000000000000000000815260040160405180910390fd5b5050565b610bca61259d565b6040518060600160405280600a8152602001601e81526020016064815250905090565b6000806002600084815260200190815260200160002060009054906101000a900473ffffffffffffffffffffffffffffffffffffffff169050600073ffffffffffffffffffffffffffffffffffffffff168173ffffffffffffffffffffffffffffffffffffffff161415610c96576040517f08c379a0000000000000000000000000000000000000000000000000000000008152600401610c8d90613297565b60405180910390fd5b80915050919050565b6000600954905090565b60008073ffffffffffffffffffffffffffffffffffffffff168273ffffffffffffffffffffffffffffffffffffffff161415610d1a576040517f08c379a0000000000000000000000000000000000000000000000000000000008152600401610d1190613329565b60405180910390fd5b600360008373ffffffffffffffffffffffffffffffffffffffff1673ffffffffffffffffffffffffffffffffffffffff168152602001908152602001600020549050919050565b610d696116be565b73ffffffffffffffffffffffffffffffffffffffff16610d87610ec1565b73ffffffffffffffffffffffffffffffffffffffff1614610ddd576040517f08c379a0000000000000000000000000000000000000000000000000000000008152600401610dd4906131bf565b60405180910390fd5b610de76000611c64565b565b6060600a8281548110610dff57610dfe613349565b5b906000526020600020018054610e1490612ed0565b80601f0160208091040260200160405190810160405280929190818152602001828054610e4090612ed0565b8015610e8d5780601f10610e6257610100808354040283529160200191610e8d565b820191906000526020600020905b815481529060010190602001808311610e7057829003601f168201915b50505050509050919050565b60007f0000000000000000000000000000000000000000000000000000000000000000905090565b6000600760009054906101000a900473ffffffffffffffffffffffffffffffffffffffff16905090565b606060018054610efa90612ed0565b80601f0160208091040260200160405190810160405280929190818152602001828054610f2690612ed0565b8015610f735780601f10610f4857610100808354040283529160200191610f73565b820191906000526020600020905b815481529060010190602001808311610f5657829003601f168201915b5050505050905090565b610f8f610f886116be565b8383611d2a565b5050565b60086020528060005260406000206000915054906101000a900473ffffffffffffffffffffffffffffffffffffffff1681565b600080600090506000610fd7610bc2565b905060005b600381101561107057828510158015611016575081816003811061100357611002613349565b5b60200201518361101391906133a7565b85105b156110385780600281111561102e5761102d612c97565b5b93505050506110a3565b81816003811061104b5761104a613349565b5b60200201518361105b91906133a7565b92508080611068906133fd565b915050610fdc565b506040517f12806c9d00000000000000000000000000000000000000000000000000000000815260040160405180910390fd5b919050565b60007f0000000000000000000000000000000000000000000000000000000000000000341015611104576040517fb90f491000000000000000000000000000000000000000000000000000000000815260040160405180910390fd5b7f000000000000000000000000000000000000000000000000000000000000000073ffffffffffffffffffffffffffffffffffffffff16635d3b1d307f00000000000000000000000000000000000000000000000000000000000000007f000000000000000000000000000000000000000000000000000000000000000060037f000000000000000000000000000000000000000000000000000000000000000060016040518663ffffffff1660e01b81526004016111c79594939291906134be565b602060405180830381600087803b1580156111e157600080fd5b505af11580156111f5573d6000803e3d6000fd5b505050506040513d601f19601f820116820180604052508101906112199190613526565b9050336008600083815260200190815260200160002060006101000a81548173ffffffffffffffffffffffffffffffffffffffff021916908373ffffffffffffffffffffffffffffffffffffffff160217905550807ff873236e6cc0ecc5be1a9a35c95ee5b8d1ac4cc7bfef0cc5060391d6cc98e26b3360405161129d9190612890565b60405180910390a290565b6112b96112b36116be565b8361191f565b6112f8576040517f08c379a00000000000000000000000000000000000000000000000000000000081526004016112ef90613153565b60405180910390fd5b61130484848484611e97565b50505050565b606061131582611652565b611354576040517f08c379a000000000000000000000000000000000000000000000000000000000815260040161134b906135c5565b60405180910390fd5b600060066000848152602001908152602001600020805461137490612ed0565b80601f01602080910402602001604051908101604052809291908181526020018280546113a090612ed0565b80156113ed5780601f106113c2576101008083540402835291602001916113ed565b820191906000526020600020905b8154815290600101906020018083116113d057829003601f168201915b5050505050905060006113fe611ef3565b9050600081511415611414578192505050611457565b600082511115611449578082604051602001611431929190613621565b60405160208183030381529060405292505050611457565b61145284611f0a565b925050505b919050565b6000600560008473ffffffffffffffffffffffffffffffffffffffff1673ffffffffffffffffffffffffffffffffffffffff16815260200190815260200160002060008373ffffffffffffffffffffffffffffffffffffffff1673ffffffffffffffffffffffffffffffffffffffff16815260200190815260200160002060009054906101000a900460ff16905092915050565b6114f86116be565b73ffffffffffffffffffffffffffffffffffffffff16611516610ec1565b73ffffffffffffffffffffffffffffffffffffffff161461156c576040517f08c379a0000000000000000000000000000000000000000000000000000000008152600401611563906131bf565b60405180910390fd5b600073ffffffffffffffffffffffffffffffffffffffff168173ffffffffffffffffffffffffffffffffffffffff1614156115dc576040517f08c379a00000000000000000000000000000000000000000000000000000000081526004016115d3906136b7565b60405180910390fd5b6115e581611c64565b50565b60007f01ffc9a7000000000000000000000000000000000000000000000000000000007bffffffffffffffffffffffffffffffffffffffffffffffffffffffff1916827bffffffffffffffffffffffffffffffffffffffffffffffffffffffff1916149050919050565b60008073ffffffffffffffffffffffffffffffffffffffff166002600084815260200190815260200160002060009054906101000a900473ffffffffffffffffffffffffffffffffffffffff1673ffffffffffffffffffffffffffffffffffffffff1614159050919050565b600033905090565b816004600083815260200190815260200160002060006101000a81548173ffffffffffffffffffffffffffffffffffffffff021916908373ffffffffffffffffffffffffffffffffffffffff160217905550808273ffffffffffffffffffffffffffffffffffffffff1661173983610bed565b73ffffffffffffffffffffffffffffffffffffffff167f8c5be1e5ebec7d5bd14f71427d1e84f3dd0314c0f7b2291e5b200ac8c7c3b92560405160405180910390a45050565b60006008600084815260200190815260200160002060009054906101000a900473ffffffffffffffffffffffffffffffffffffffff1690506000600954905060006064846000815181106117d6576117d5613349565b5b60200260200101516117e89190613706565b905060006117f582610fc6565b90506009546009600082825461180b91906133a7565b9250508190555061181c8484611fb1565b6118de83600a83600281111561183557611834612c97565b5b8154811061184657611845613349565b5b90600052602060002001805461185b90612ed0565b80601f016020809104026020016040519081016040528092919081815260200182805461188790612ed0565b80156118d45780601f106118a9576101008083540402835291602001916118d4565b820191906000526020600020905b8154815290600101906020018083116118b757829003601f168201915b5050505050611fcf565b7f8a269f26b688e110e9cbd887d163dab35cae678fa353a0292de532c0cac1ecdc818560405161190f929190613737565b60405180910390a1505050505050565b600061192a82611652565b611969576040517f08c379a0000000000000000000000000000000000000000000000000000000008152600401611960906137d2565b60405180910390fd5b600061197483610bed565b90508073ffffffffffffffffffffffffffffffffffffffff168473ffffffffffffffffffffffffffffffffffffffff1614806119b657506119b5818561145c565b5b806119f457508373ffffffffffffffffffffffffffffffffffffffff166119dc846107b7565b73ffffffffffffffffffffffffffffffffffffffff16145b91505092915050565b8273ffffffffffffffffffffffffffffffffffffffff16611a1d82610bed565b73ffffffffffffffffffffffffffffffffffffffff1614611a73576040517f08c379a0000000000000000000000000000000000000000000000000000000008152600401611a6a90613864565b60405180910390fd5b600073ffffffffffffffffffffffffffffffffffffffff168273ffffffffffffffffffffffffffffffffffffffff161415611ae3576040517f08c379a0000000000000000000000000000000000000000000000000000000008152600401611ada906138f6565b60405180910390fd5b611aee838383612043565b611af96000826116c6565b6001600360008573ffffffffffffffffffffffffffffffffffffffff1673ffffffffffffffffffffffffffffffffffffffff1681526020019081526020016000206000828254611b499190613916565b925050819055506001600360008473ffffffffffffffffffffffffffffffffffffffff1673ffffffffffffffffffffffffffffffffffffffff1681526020019081526020016000206000828254611ba091906133a7565b92505081905550816002600083815260200190815260200160002060006101000a81548173ffffffffffffffffffffffffffffffffffffffff021916908373ffffffffffffffffffffffffffffffffffffffff160217905550808273ffffffffffffffffffffffffffffffffffffffff168473ffffffffffffffffffffffffffffffffffffffff167fddf252ad1be2c89b69c2b068fc378daa952ba7f163c4a11628f55a4df523b3ef60405160405180910390a4611c5f838383612048565b505050565b6000600760009054906101000a900473ffffffffffffffffffffffffffffffffffffffff16905081600760006101000a81548173ffffffffffffffffffffffffffffffffffffffff021916908373ffffffffffffffffffffffffffffffffffffffff1602179055508173ffffffffffffffffffffffffffffffffffffffff168173ffffffffffffffffffffffffffffffffffffffff167f8be0079c531659141344cd1fd0a4f28419497f9722a3daafe3b4186f6b6457e060405160405180910390a35050565b8173ffffffffffffffffffffffffffffffffffffffff168373ffffffffffffffffffffffffffffffffffffffff161415611d99576040517f08c379a0000000000000000000000000000000000000000000000000000000008152600401611d9090613996565b60405180910390fd5b80600560008573ffffffffffffffffffffffffffffffffffffffff1673ffffffffffffffffffffffffffffffffffffffff16815260200190815260200160002060008473ffffffffffffffffffffffffffffffffffffffff1673ffffffffffffffffffffffffffffffffffffffff16815260200190815260200160002060006101000a81548160ff0219169083151502179055508173ffffffffffffffffffffffffffffffffffffffff168373ffffffffffffffffffffffffffffffffffffffff167f17307eab39ab6107e8899845ad3d59bd9653f200f220920489ca2b5937696c3183604051611e8a9190612716565b60405180910390a3505050565b611ea28484846119fd565b611eae8484848461204d565b611eed576040517f08c379a0000000000000000000000000000000000000000000000000000000008152600401611ee490613a28565b60405180910390fd5b50505050565b606060405180602001604052806000815250905090565b6060611f1582611652565b611f54576040517f08c379a0000000000000000000000000000000000000000000000000000000008152600401611f4b90613aba565b60405180910390fd5b6000611f5e611ef3565b90506000815111611f7e5760405180602001604052806000815250611fa9565b80611f88846121e4565b604051602001611f99929190613621565b6040516020818303038152906040525b915050919050565b611fcb828260405180602001604052806000815250612345565b5050565b611fd882611652565b612017576040517f08c379a000000000000000000000000000000000000000000000000000000000815260040161200e90613b4c565b60405180910390fd5b8060066000848152602001908152602001600020908051906020019061203e9291906125bf565b505050565b505050565b505050565b600061206e8473ffffffffffffffffffffffffffffffffffffffff166123a0565b156121d7578373ffffffffffffffffffffffffffffffffffffffff1663150b7a026120976116be565b8786866040518563ffffffff1660e01b81526004016120b99493929190613bc1565b602060405180830381600087803b1580156120d357600080fd5b505af192505050801561210457506040513d601f19601f820116820180604052508101906121019190613c22565b60015b612187573d8060008114612134576040519150601f19603f3d011682016040523d82523d6000602084013e612139565b606091505b5060008151141561217f576040517f08c379a000000000000000000000000000000000000000000000000000000000815260040161217690613a28565b60405180910390fd5b805181602001fd5b63150b7a0260e01b7bffffffffffffffffffffffffffffffffffffffffffffffffffffffff1916817bffffffffffffffffffffffffffffffffffffffffffffffffffffffff1916149150506121dc565b600190505b949350505050565b6060600082141561222c576040518060400160405280600181526020017f30000000000000000000000000000000000000000000000000000000000000008152509050612340565b600082905060005b6000821461225e578080612247906133fd565b915050600a826122579190613c4f565b9150612234565b60008167ffffffffffffffff81111561227a57612279612946565b5b6040519080825280601f01601f1916602001820160405280156122ac5781602001600182028036833780820191505090505b5090505b60008514612339576001826122c59190613916565b9150600a856122d49190613706565b60306122e091906133a7565b60f81b8183815181106122f6576122f5613349565b5b60200101907effffffffffffffffffffffffffffffffffffffffffffffffffffffffffffff1916908160001a905350600a856123329190613c4f565b94506122b0565b8093505050505b919050565b61234f83836123c3565b61235c600084848461204d565b61239b576040517f08c379a000000000000000000000000000000000000000000000000000000000815260040161239290613a28565b60405180910390fd5b505050565b6000808273ffffffffffffffffffffffffffffffffffffffff163b119050919050565b600073ffffffffffffffffffffffffffffffffffffffff168273ffffffffffffffffffffffffffffffffffffffff161415612433576040517f08c379a000000000000000000000000000000000000000000000000000000000815260040161242a90613ccc565b60405180910390fd5b61243c81611652565b1561247c576040517f08c379a000000000000000000000000000000000000000000000000000000000815260040161247390613d38565b60405180910390fd5b61248860008383612043565b6001600360008473ffffffffffffffffffffffffffffffffffffffff1673ffffffffffffffffffffffffffffffffffffffff16815260200190815260200160002060008282546124d891906133a7565b92505081905550816002600083815260200190815260200160002060006101000a81548173ffffffffffffffffffffffffffffffffffffffff021916908373ffffffffffffffffffffffffffffffffffffffff160217905550808273ffffffffffffffffffffffffffffffffffffffff16600073ffffffffffffffffffffffffffffffffffffffff167fddf252ad1be2c89b69c2b068fc378daa952ba7f163c4a11628f55a4df523b3ef60405160405180910390a461259960008383612048565b5050565b6040518060600160405280600390602082028036833780820191505090505090565b8280546125cb90612ed0565b90600052602060002090601f0160209004810192826125ed5760008555612634565b82601f1061260657805160ff1916838001178555612634565b82800160010185558215612634579182015b82811115612633578251825591602001919060010190612618565b5b5090506126419190612645565b5090565b5b8082111561265e576000816000905550600101612646565b5090565b6000604051905090565b600080fd5b600080fd5b60007fffffffff0000000000000000000000000000000000000000000000000000000082169050919050565b6126ab81612676565b81146126b657600080fd5b50565b6000813590506126c8816126a2565b92915050565b6000602082840312156126e4576126e361266c565b5b60006126f2848285016126b9565b91505092915050565b60008115159050919050565b612710816126fb565b82525050565b600060208201905061272b6000830184612707565b92915050565b600081519050919050565b600082825260208201905092915050565b60005b8381101561276b578082015181840152602081019050612750565b8381111561277a576000848401525b50505050565b6000601f19601f8301169050919050565b600061279c82612731565b6127a6818561273c565b93506127b681856020860161274d565b6127bf81612780565b840191505092915050565b600060208201905081810360008301526127e48184612791565b905092915050565b6000819050919050565b6127ff816127ec565b811461280a57600080fd5b50565b60008135905061281c816127f6565b92915050565b6000602082840312156128385761283761266c565b5b60006128468482850161280d565b91505092915050565b600073ffffffffffffffffffffffffffffffffffffffff82169050919050565b600061287a8261284f565b9050919050565b61288a8161286f565b82525050565b60006020820190506128a56000830184612881565b92915050565b6128b48161286f565b81146128bf57600080fd5b50565b6000813590506128d1816128ab565b92915050565b600080604083850312156128ee576128ed61266c565b5b60006128fc858286016128c2565b925050602061290d8582860161280d565b9150509250929050565b612920816127ec565b82525050565b600060208201905061293b6000830184612917565b92915050565b600080fd5b7f4e487b7100000000000000000000000000000000000000000000000000000000600052604160045260246000fd5b61297e82612780565b810181811067ffffffffffffffff8211171561299d5761299c612946565b5b80604052505050565b60006129b0612662565b90506129bc8282612975565b919050565b600067ffffffffffffffff8211156129dc576129db612946565b5b602082029050602081019050919050565b600080fd5b6000612a05612a00846129c1565b6129a6565b90508083825260208201905060208402830185811115612a2857612a276129ed565b5b835b81811015612a515780612a3d888261280d565b845260208401935050602081019050612a2a565b5050509392505050565b600082601f830112612a7057612a6f612941565b5b8135612a808482602086016129f2565b91505092915050565b60008060408385031215612aa057612a9f61266c565b5b6000612aae8582860161280d565b925050602083013567ffffffffffffffff811115612acf57612ace612671565b5b612adb85828601612a5b565b9150509250929050565b600080600060608486031215612afe57612afd61266c565b5b6000612b0c868287016128c2565b9350506020612b1d868287016128c2565b9250506040612b2e8682870161280d565b9150509250925092565b600060039050919050565b600081905092915050565b6000819050919050565b612b61816127ec565b82525050565b6000612b738383612b58565b60208301905092915050565b6000602082019050919050565b612b9581612b38565b612b9f8184612b43565b9250612baa82612b4e565b8060005b83811015612bdb578151612bc28782612b67565b9650612bcd83612b7f565b925050600181019050612bae565b505050505050565b6000606082019050612bf86000830184612b8c565b92915050565b600060208284031215612c1457612c1361266c565b5b6000612c22848285016128c2565b91505092915050565b612c34816126fb565b8114612c3f57600080fd5b50565b600081359050612c5181612c2b565b92915050565b60008060408385031215612c6e57612c6d61266c565b5b6000612c7c858286016128c2565b9250506020612c8d85828601612c42565b9150509250929050565b7f4e487b7100000000000000000000000000000000000000000000000000000000600052602160045260246000fd5b60038110612cd757612cd6612c97565b5b50565b6000819050612ce882612cc6565b919050565b6000612cf882612cda565b9050919050565b612d0881612ced565b82525050565b6000602082019050612d236000830184612cff565b92915050565b600080fd5b600067ffffffffffffffff821115612d4957612d48612946565b5b612d5282612780565b9050602081019050919050565b82818337600083830152505050565b6000612d81612d7c84612d2e565b6129a6565b905082815260208101848484011115612d9d57612d9c612d29565b5b612da8848285612d5f565b509392505050565b600082601f830112612dc557612dc4612941565b5b8135612dd5848260208601612d6e565b91505092915050565b60008060008060808587031215612df857612df761266c565b5b6000612e06878288016128c2565b9450506020612e17878288016128c2565b9350506040612e288782880161280d565b925050606085013567ffffffffffffffff811115612e4957612e48612671565b5b612e5587828801612db0565b91505092959194509250565b60008060408385031215612e7857612e7761266c565b5b6000612e86858286016128c2565b9250506020612e97858286016128c2565b9150509250929050565b7f4e487b7100000000000000000000000000000000000000000000000000000000600052602260045260246000fd5b60006002820490506001821680612ee857607f821691505b60208210811415612efc57612efb612ea1565b5b50919050565b7f4552433732313a20617070726f76656420717565727920666f72206e6f6e657860008201527f697374656e7420746f6b656e0000000000000000000000000000000000000000602082015250565b6000612f5e602c8361273c565b9150612f6982612f02565b604082019050919050565b60006020820190508181036000830152612f8d81612f51565b9050919050565b7f4552433732313a20617070726f76616c20746f2063757272656e74206f776e6560008201527f7200000000000000000000000000000000000000000000000000000000000000602082015250565b6000612ff060218361273c565b9150612ffb82612f94565b604082019050919050565b6000602082019050818103600083015261301f81612fe3565b9050919050565b7f4552433732313a20617070726f76652063616c6c6572206973206e6f74206f7760008201527f6e6572206e6f7220617070726f76656420666f7220616c6c0000000000000000602082015250565b600061308260388361273c565b915061308d82613026565b604082019050919050565b600060208201905081810360008301526130b181613075565b9050919050565b60006040820190506130cd6000830185612881565b6130da6020830184612881565b9392505050565b7f4552433732313a207472616e736665722063616c6c6572206973206e6f74206f60008201527f776e6572206e6f7220617070726f766564000000000000000000000000000000602082015250565b600061313d60318361273c565b9150613148826130e1565b604082019050919050565b6000602082019050818103600083015261316c81613130565b9050919050565b7f4f776e61626c653a2063616c6c6572206973206e6f7420746865206f776e6572600082015250565b60006131a960208361273c565b91506131b482613173565b602082019050919050565b600060208201905081810360008301526131d88161319c565b9050919050565b600081905092915050565b50565b60006131fa6000836131df565b9150613205826131ea565b600082019050919050565b600061321b826131ed565b9150819050919050565b7f4552433732313a206f776e657220717565727920666f72206e6f6e657869737460008201527f656e7420746f6b656e0000000000000000000000000000000000000000000000602082015250565b600061328160298361273c565b915061328c82613225565b604082019050919050565b600060208201905081810360008301526132b081613274565b9050919050565b7f4552433732313a2062616c616e636520717565727920666f7220746865207a6560008201527f726f206164647265737300000000000000000000000000000000000000000000602082015250565b6000613313602a8361273c565b915061331e826132b7565b604082019050919050565b6000602082019050818103600083015261334281613306565b9050919050565b7f4e487b7100000000000000000000000000000000000000000000000000000000600052603260045260246000fd5b7f4e487b7100000000000000000000000000000000000000000000000000000000600052601160045260246000fd5b60006133b2826127ec565b91506133bd836127ec565b9250827fffffffffffffffffffffffffffffffffffffffffffffffffffffffffffffffff038211156133f2576133f1613378565b5b828201905092915050565b6000613408826127ec565b91507fffffffffffffffffffffffffffffffffffffffffffffffffffffffffffffffff82141561343b5761343a613378565b5b600182019050919050565b6000819050919050565b61345981613446565b82525050565b600067ffffffffffffffff82169050919050565b61347c8161345f565b82525050565b600061ffff82169050919050565b61349981613482565b82525050565b600063ffffffff82169050919050565b6134b88161349f565b82525050565b600060a0820190506134d36000830188613450565b6134e06020830187613473565b6134ed6040830186613490565b6134fa60608301856134af565b61350760808301846134af565b9695505050505050565b600081519050613520816127f6565b92915050565b60006020828403121561353c5761353b61266c565b5b600061354a84828501613511565b91505092915050565b7f45524337323155524953746f726167653a2055524920717565727920666f722060008201527f6e6f6e6578697374656e7420746f6b656e000000000000000000000000000000602082015250565b60006135af60318361273c565b91506135ba82613553565b604082019050919050565b600060208201905081810360008301526135de816135a2565b9050919050565b600081905092915050565b60006135fb82612731565b61360581856135e5565b935061361581856020860161274d565b80840191505092915050565b600061362d82856135f0565b915061363982846135f0565b91508190509392505050565b7f4f776e61626c653a206e6577206f776e657220697320746865207a65726f206160008201527f6464726573730000000000000000000000000000000000000000000000000000602082015250565b60006136a160268361273c565b91506136ac82613645565b604082019050919050565b600060208201905081810360008301526136d081613694565b9050919050565b7f4e487b7100000000000000000000000000000000000000000000000000000000600052601260045260246000fd5b6000613711826127ec565b915061371c836127ec565b92508261372c5761372b6136d7565b5b828206905092915050565b600060408201905061374c6000830185612cff565b6137596020830184612881565b9392505050565b7f4552433732313a206f70657261746f7220717565727920666f72206e6f6e657860008201527f697374656e7420746f6b656e0000000000000000000000000000000000000000602082015250565b60006137bc602c8361273c565b91506137c782613760565b604082019050919050565b600060208201905081810360008301526137eb816137af565b9050919050565b7f4552433732313a207472616e736665722066726f6d20696e636f72726563742060008201527f6f776e6572000000000000000000000000000000000000000000000000000000602082015250565b600061384e60258361273c565b9150613859826137f2565b604082019050919050565b6000602082019050818103600083015261387d81613841565b9050919050565b7f4552433732313a207472616e7366657220746f20746865207a65726f2061646460008201527f7265737300000000000000000000000000000000000000000000000000000000602082015250565b60006138e060248361273c565b91506138eb82613884565b604082019050919050565b6000602082019050818103600083015261390f816138d3565b9050919050565b6000613921826127ec565b915061392c836127ec565b92508282101561393f5761393e613378565b5b828203905092915050565b7f4552433732313a20617070726f766520746f2063616c6c657200000000000000600082015250565b600061398060198361273c565b915061398b8261394a565b602082019050919050565b600060208201905081810360008301526139af81613973565b9050919050565b7f4552433732313a207472616e7366657220746f206e6f6e20455243373231526560008201527f63656976657220696d706c656d656e7465720000000000000000000000000000602082015250565b6000613a1260328361273c565b9150613a1d826139b6565b604082019050919050565b60006020820190508181036000830152613a4181613a05565b9050919050565b7f4552433732314d657461646174613a2055524920717565727920666f72206e6f60008201527f6e6578697374656e7420746f6b656e0000000000000000000000000000000000602082015250565b6000613aa4602f8361273c565b9150613aaf82613a48565b604082019050919050565b60006020820190508181036000830152613ad381613a97565b9050919050565b7f45524337323155524953746f726167653a2055524920736574206f66206e6f6e60008201527f6578697374656e7420746f6b656e000000000000000000000000000000000000602082015250565b6000613b36602e8361273c565b9150613b4182613ada565b604082019050919050565b60006020820190508181036000830152613b6581613b29565b9050919050565b600081519050919050565b600082825260208201905092915050565b6000613b9382613b6c565b613b9d8185613b77565b9350613bad81856020860161274d565b613bb681612780565b840191505092915050565b6000608082019050613bd66000830187612881565b613be36020830186612881565b613bf06040830185612917565b8181036060830152613c028184613b88565b905095945050505050565b600081519050613c1c816126a2565b92915050565b600060208284031215613c3857613c3761266c565b5b6000613c4684828501613c0d565b91505092915050565b6000613c5a826127ec565b9150613c65836127ec565b925082613c7557613c746136d7565b5b828204905092915050565b7f4552433732313a206d696e7420746f20746865207a65726f2061646472657373600082015250565b6000613cb660208361273c565b9150613cc182613c80565b602082019050919050565b60006020820190508181036000830152613ce581613ca9565b9050919050565b7f4552433732313a20746f6b656e20616c7265616479206d696e74656400000000600082015250565b6000613d22601c8361273c565b9150613d2d82613cec565b602082019050919050565b60006020820190508181036000830152613d5181613d15565b905091905056fea2646970667358221220f435d0b31b368cdcec80f08f9be7e7044d70d15854a0b38dfaedad97f244c0e164736f6c63430008080033",
  "linkReferences": {},
  "deployedLinkReferences": {}
}